:0200000099283D
:10000600831203132230DC00D801D901DA01DB01A7
:10001600DC03031939280310DB0CDA0CD90CD80CD5
:10002600D30CD20CD10CD00C031C0B28DC03031907
:100036002B285408D80755080318550FD907560812
:100046000318560FDA0757080318570FDB070F2850
:100056005408D80755080318550FD907560803182A
:0E006600560FDA0757080318570FDB0708007C
:1000740083122B08A4002C08A500A601A7010130B7
:04008400A0000800D0
:1000880002308312DB008630DC009930DD00DD0BA6
:0C0098004B28DC0B4B28DB0B4B2808002E
:1000A40083122008003A031D5B280130AB00AC0129
:1000B4003A202408D0002508D1002608D2002708B9
:1000C400D3006D30D4004E30D500C630D600413058
:1000D400D70003203930A4003030A500A601A701C1
:1000E4005008A40751080318510FA5075208031814
:1000F400520FA60753080318530FA7072608A40096
:100104002708A5000030A71BFF30A600A700FF307A
:10011400A4057F30A5050030A605A7052408A9007D
:0E0124002508AA002908D0002A08D1000800EA
:1001320007308312990083169F01DF30810005107A
:100142000511CE30A80083129010901610168E0161
:100152008F010C101014CE3081000B11A101A201ED
:1001620044200B1DBA28A20A013085062808810006
:100172000B110C1CD528A10A043085061F3021055D
:10018200D1005108A100640051081F3A031DD22872
:1001920052200F305105D2005208A3005208CE3E21
:0C01A200A8008E018F010C10B228D62896
:02400E00FA3185
:00000001FF
