:0200000099283D
:10000600831203132230DC00D801D901DA01DB01A7
:10001600DC03031939280310DB0CDA0CD90CD80CD5
:10002600D30CD20CD10CD00C031C0B28DC03031907
:100036002B285408D80755080318550FD907560812
:100046000318560FDA0757080318570FDB070F2850
:100056005408D80755080318550FD907560803182A
:0E006600560FDA0757080318570FDB0708007C
:1000740083122A08A2002B08A300A401A5010130C1
:04008400A1000800CF
:1000880002308312DB008630DC009930DD00DD0BA6
:0C0098004B28DC0B4B28DB0B4B2808002E
:1000A40083122108003A031D5B280130AA00AB012A
:1000B4003A202208D0002308D1002408D2002508C1
:1000C400D3006D30D4004E30D500C630D600413058
:1000D400D70003203930A2003030A300A401A501C9
:1000E4005008A20751080318510FA3075208031818
:1000F400520FA40753080318530FA5072408A2009E
:100104002508A3000030A51BFF30A400A500FF3084
:10011400A2057F30A3050030A405A5052208A80088
:0E0124002308A9002808D0002908D1000800EF
:1001320007308312990083169F01DF30810005107A
:100142000511DE30A70083129010901610168E0152
:100152008F010C101014DE3081000B11A601442017
:100162000B1DB82801308506270881000B110C1CD5
:10017200D328A60A0430850607302605D100510887
:10018200A60064005108073A031DD02852200F3000
:100192005105D2005208A0005208DE3EA7008E018F
:0801A2008F010C10B128D428D4
:02400E00FA3185
:00000001FF
