:02000000B12825
:10000800DF00030E8301A6000A08AA008A010B1D5F
:1000180014288312A80A01308506290881000B11CB
:0E0028002A088A00260E8300DF0E5F0E0900F4
:10003600831203132230DC00D801D901DA01DB0177
:10004600DC03031951280310DB0CDA0CD90CD80C8D
:10005600D30CD20CD10CD00C031C2328DC030319BF
:1000660043285408D80755080318550FD9075608CA
:100076000318560FDA0757080318570FDB07272808
:100086005408D80755080318550FD90756080318FA
:0E009600560FDA0757080318570FDB0708004C
:1000A40083122D08A2002E08A300A401A50101308B
:0400B400A10008009F
:1000B80002308312DB008630DC009930DD00DD0B76
:0C00C8006328DC0B6328DB0B63280800B6
:1000D40083122108003A031D73280130AD00AE01DC
:1000E40052202208D0002308D1002408D200250879
:1000F400D3006D30D4004E30D500C630D600413028
:10010400D7001B203930A2003030A300A401A50180
:100114005008A20751080318510FA30752080318E7
:10012400520FA40753080318530FA5072408A2006D
:100134002508A3000030A51BFF30A400A500FF3054
:10014400A2057F30A3050030A405A5052208AB0055
:0E0154002308AC002B08D0002C08D1000800B6
:1001620007308312990083169F01DF30810005104A
:100172000511CE30A90083129010901610168E0130
:100182008F010C101014CE3081000B11A701A801B1
:10019200A0308B005C200C1CE728A70A04308506DF
:1001A2001F302705D1005108A700640051081F3AEB
:1001B200031DE4286A200F305105D2005208A00026
:1001C2005208CE3EA9008E018F010C10CC28E828DF
:02400E00FA3185
:00000001FF
