:02000000832952
:10000800FF00030E8301AA000A08AB008A010C1C3A
:1000180013289E308F0057308E000C10A80A2B082A
:0C0028008A002A0E8300FF0E7F0E0900E4
:10003400710DF80DF90D7408F8027508031C750F9D
:10004400F902F00DF10D0F30FC00710DF80DF90DF2
:100054007408701C3328F8027508031C750FF90224
:100064003828F80775080318750FF907F00DF10D16
:10007400FC0B2728701844287408F807750803181F
:08008400750FF90700000800E8
:10008C0083122F08A2003008A300A401A50101309F
:04009C00A9000800AF
:1000A000831203132230FC00F801F901FA01FB016D
:1000B000FC03031986280310FB0CFA0CF90CF80C4E
:1000C000F30CF20CF10CF00C031C5828FC03031980
:1000D00078287408F80775080318750FF90776086B
:1000E0000318760FFA0777080318770FFB075C28C9
:1000F0007408F80775080318750FF90776080318D0
:0E010000760FFA0777080318770FFB07080041
:10010E0083122D082C02031894282D08FF3CF000B2
:10011E0070082C07F200F20A97282D082C02F20024
:10012E002E087202FF30031C0030F1007108F0003F
:02013E000800B7
:1001400083122908003A031DA9280130AF00B0012D
:1001500046202208F0002308F1002408F2002508B8
:10016000F3006D30F4004E30F500C630F60041303B
:10017000F70050203930A2003030A300A401A501BF
:100180007008A20771080318710FA30772080318FB
:10019000720FA40773080318730FA5072408A200A1
:1001A0002508A3000030A51BFF30A400A500FF30E8
:1001B000A2057F30A3050030A405A5052208AC00E8
:0E01C0002308AD002C08F0002D08F100080007
:1001CE0002308312FB000430FC00BA30FD00FD0B40
:0E01DE00EE28FC0BEE28FB0BEE2800000800BC
:1001EC0083127408003A031D04297508003A031D94
:1001FC000429FF30F0007F30F1005D2983120313D6
:10020C00FD01F901F801710870040319003471083B
:10021C007506FA00FA1BFD09FB01F51F1A29F409F2
:10022C00F509F40A0319F50AF11F2129F009F1095E
:10023C00F00A0319F10A71087504FA00FA1B362941
:10024C001A207B184929FD1F0034F009F109F00A26
:10025C000319F10AF809F909F80A0319F90A003423
:10026C00F51F4529F11B41297108F9007008F800A8
:10027C00F101F0012929F101F001F00A0034F10932
:10028C00F009FB0A2629F80A0319F90A74087802FE
:10029C00031D292975087902031D2929F901F80183
:1002AC00F00A0319F10AF11F29290000FF34080094
:1002BC0083128C1C5E292C08633CF000700883169A
:1002CC009200700AF1007108F200F20D72107208BF
:1002DC00F3007208F000F00CF013F00CF01370083F
:1002EC0083129300F3187C2995127D2995167318A7
:0A02FC008129151282291516080049
:10030600703083168F0007308312990083169F0181
:1003160005100515633092000C30831295003230BB
:1003260093008C1004309200831605118312A101EC
:1003360064000510A001303090000C10A801E720E1
:10034600640083160C140B178B17831210142808DD
:10035600AC002008AD000A30AE00872070080319F3
:10036600B929013085062808A00064002808AC00D9
:100376002108AD002708AE00872070080319DF2981
:10038600A0203C30F400F501F6207808F00079084A
:10039600F1001E307007A700A0201E30F400F50102
:1003A600F6207808F0007908F1007008A6007008B9
:0C03B600AC005E212808A100AA29E02963
:02400E00DD0FC4
:00000001FF
