:020000006F2966
:10000800FF00030E8301AA000A08AB008A010C1C3A
:1000180013289E308F0057308E000C10A50A2B082D
:0C0028008A002A0E8300FF0E7F0E0900E4
:10003400710DF80DF90D7408F8027508031C750F9D
:10004400F902F00DF10D0F30FC00710DF80DF90DF2
:100054007408701C3328F8027508031C750FF90224
:100064003828F80775080318750FF907F00DF10D16
:10007400FC0B2728701844287408F807750803181F
:08008400750FF90700000800E8
:10008C0083122F08A6003008A700A801A90101308F
:04009C00A1000800B7
:1000A000831203132230FC00F801F901FA01FB016D
:1000B000FC03031986280310FB0CFA0CF90CF80C4E
:1000C000F30CF20CF10CF00C031C5828FC03031980
:1000D00078287408F80775080318750FF90776086B
:1000E0000318760FFA0777080318770FFB075C28C9
:1000F0007408F80775080318750FF90776080318D0
:0E010000760FFA0777080318770FFB07080041
:10010E0083122D082C02031894282D08FF3CF000B2
:10011E0070082C07F200F20A97282D082C02F20024
:10012E002E087202FF30031C0030F1007108F0003F
:02013E000800B7
:1001400083122108003A031DA9280130AF00B00135
:1001500046202608F0002708F1002808F2002908A8
:10016000F3006D30F4004E30F500C630F60041303B
:10017000F70050203930A6003030A700A801A901AF
:100180007008A60771080318710FA70772080318F3
:10019000720FA80773080318730FA9072808A60091
:1001A0002908A7000030A91BFF30A800A900FF30D4
:1001B000A6057F30A7050030A805A9052608AC00D4
:0E01C0002708AD002C08F0002D08F100080003
:1001CE0002308312FB000430FC00BA30FD00FD0B40
:0E01DE00EE28FC0BEE28FB0BEE2800000800BC
:1001EC0083127408003A031D04297508003A031D94
:1001FC000429FF30F0007F30F1005D2983120313D6
:10020C00FD01F901F801710870040319003471083B
:10021C007506FA00FA1BFD09FB01F51F1A29F409F2
:10022C00F509F40A0319F50AF11F2129F009F1095E
:10023C00F00A0319F10A71087504FA00FA1B362941
:10024C001A207B184929FD1F0034F009F109F00A26
:10025C000319F10AF809F909F80A0319F90A003423
:10026C00F51F4529F11B41297108F9007008F800A8
:10027C00F101F0012929F101F001F00A0034F10932
:10028C00F009FB0A2629F80A0319F90A74087802FE
:10029C00031D292975087902031D2929F901F80183
:1002AC00F00A0319F10AF11F29290000FF34080094
:1002BC0083128C1C5E292C08633C83169200120A54
:1002CC00F2007208F000F00CF01370088312930027
:0202DC00080018
:1002DE00703083168F0007308312990083169F01AA
:1002EE0005100515633092000C30831295003230E4
:1002FE0093008C1004309200831605118312A20114
:10030E0064000510A001303090000C10A501E7200C
:10031E00640083160C140B178B1783121014250808
:10032E00AC002008AD000A30AE008720700803191B
:10033E00A529013085062508A00064002508AC001B
:10034E002208AD002408AE00872070080319CB29BF
:10035E00A0203C30F400F501F6207808F000790872
:10036E00F1001E307007A400A0201E30F400F5012D
:10037E00F6207808F0007908F1007008A3007008E4
:0C038E00AC005E212508A2009629CC29B5
:02400E00DD0FC4
:00000001FF
